{
  "_format": "hh-sol-artifact-1",
  "contractName": "NFTMarket",
  "sourceName": "contracts/NFTMarket.sol",
  "abi": [
    {
      "inputs": [],
      "stateMutability": "nonpayable",
      "type": "constructor"
    },
    {
      "anonymous": false,
      "inputs": [
        {
          "indexed": true,
          "internalType": "address",
          "name": "owner",
          "type": "address"
        },
        {
          "indexed": true,
          "internalType": "address",
          "name": "approved",
          "type": "address"
        },
        {
          "indexed": true,
          "internalType": "uint256",
          "name": "tokenId",
          "type": "uint256"
        }
      ],
      "name": "Approval",
      "type": "event"
    },
    {
      "anonymous": false,
      "inputs": [
        {
          "indexed": true,
          "internalType": "address",
          "name": "owner",
          "type": "address"
        },
        {
          "indexed": true,
          "internalType": "address",
          "name": "operator",
          "type": "address"
        },
        {
          "indexed": false,
          "internalType": "bool",
          "name": "approved",
          "type": "bool"
        }
      ],
      "name": "ApprovalForAll",
      "type": "event"
    },
    {
      "anonymous": false,
      "inputs": [
        {
          "indexed": false,
          "internalType": "uint256",
          "name": "id",
          "type": "uint256"
        },
        {
          "indexed": false,
          "internalType": "uint256",
          "name": "price",
          "type": "uint256"
        },
        {
          "indexed": false,
          "internalType": "address",
          "name": "creator",
          "type": "address"
        },
        {
          "indexed": false,
          "internalType": "bool",
          "name": "isListed",
          "type": "bool"
        }
      ],
      "name": "NFTCreated",
      "type": "event"
    },
    {
      "anonymous": false,
      "inputs": [
        {
          "indexed": true,
          "internalType": "address",
          "name": "previousOwner",
          "type": "address"
        },
        {
          "indexed": true,
          "internalType": "address",
          "name": "newOwner",
          "type": "address"
        }
      ],
      "name": "OwnershipTransferred",
      "type": "event"
    },
    {
      "anonymous": false,
      "inputs": [
        {
          "indexed": true,
          "internalType": "address",
          "name": "from",
          "type": "address"
        },
        {
          "indexed": true,
          "internalType": "address",
          "name": "to",
          "type": "address"
        },
        {
          "indexed": true,
          "internalType": "uint256",
          "name": "tokenId",
          "type": "uint256"
        }
      ],
      "name": "Transfer",
      "type": "event"
    },
    {
      "inputs": [],
      "name": "LISTING_PRICE",
      "outputs": [
        {
          "internalType": "uint256",
          "name": "",
          "type": "uint256"
        }
      ],
      "stateMutability": "view",
      "type": "function"
    },
    {
      "inputs": [
        {
          "internalType": "address",
          "name": "to",
          "type": "address"
        },
        {
          "internalType": "uint256",
          "name": "tokenId",
          "type": "uint256"
        }
      ],
      "name": "approve",
      "outputs": [],
      "stateMutability": "nonpayable",
      "type": "function"
    },
    {
      "inputs": [
        {
          "internalType": "address",
          "name": "owner",
          "type": "address"
        }
      ],
      "name": "balanceOf",
      "outputs": [
        {
          "internalType": "uint256",
          "name": "",
          "type": "uint256"
        }
      ],
      "stateMutability": "view",
      "type": "function"
    },
    {
      "inputs": [
        {
          "internalType": "uint256",
          "name": "tokenID",
          "type": "uint256"
        }
      ],
      "name": "buyNFT",
      "outputs": [],
      "stateMutability": "payable",
      "type": "function"
    },
    {
      "inputs": [],
      "name": "getAllNFTs",
      "outputs": [
        {
          "components": [
            {
              "internalType": "uint256",
              "name": "tokenID",
              "type": "uint256"
            },
            {
              "internalType": "uint256",
              "name": "price",
              "type": "uint256"
            },
            {
              "internalType": "address",
              "name": "creator",
              "type": "address"
            },
            {
              "internalType": "bool",
              "name": "isListed",
              "type": "bool"
            }
          ],
          "internalType": "struct NFTMarket.NFTItem[]",
          "name": "",
          "type": "tuple[]"
        }
      ],
      "stateMutability": "view",
      "type": "function"
    },
    {
      "inputs": [],
      "name": "getAllNFTsOnSale",
      "outputs": [
        {
          "components": [
            {
              "internalType": "uint256",
              "name": "tokenID",
              "type": "uint256"
            },
            {
              "internalType": "uint256",
              "name": "price",
              "type": "uint256"
            },
            {
              "internalType": "address",
              "name": "creator",
              "type": "address"
            },
            {
              "internalType": "bool",
              "name": "isListed",
              "type": "bool"
            }
          ],
          "internalType": "struct NFTMarket.NFTItem[]",
          "name": "",
          "type": "tuple[]"
        }
      ],
      "stateMutability": "view",
      "type": "function"
    },
    {
      "inputs": [
        {
          "internalType": "uint256",
          "name": "tokenId",
          "type": "uint256"
        }
      ],
      "name": "getApproved",
      "outputs": [
        {
          "internalType": "address",
          "name": "",
          "type": "address"
        }
      ],
      "stateMutability": "view",
      "type": "function"
    },
    {
      "inputs": [],
      "name": "getListedItemsCount",
      "outputs": [
        {
          "internalType": "uint256",
          "name": "",
          "type": "uint256"
        }
      ],
      "stateMutability": "view",
      "type": "function"
    },
    {
      "inputs": [],
      "name": "getMyNFTs",
      "outputs": [
        {
          "components": [
            {
              "internalType": "uint256",
              "name": "tokenID",
              "type": "uint256"
            },
            {
              "internalType": "uint256",
              "name": "price",
              "type": "uint256"
            },
            {
              "internalType": "address",
              "name": "creator",
              "type": "address"
            },
            {
              "internalType": "bool",
              "name": "isListed",
              "type": "bool"
            }
          ],
          "internalType": "struct NFTMarket.NFTItem[]",
          "name": "",
          "type": "tuple[]"
        }
      ],
      "stateMutability": "view",
      "type": "function"
    },
    {
      "inputs": [
        {
          "internalType": "uint256",
          "name": "tokenID",
          "type": "uint256"
        }
      ],
      "name": "getNFTItem",
      "outputs": [
        {
          "components": [
            {
              "internalType": "uint256",
              "name": "tokenID",
              "type": "uint256"
            },
            {
              "internalType": "uint256",
              "name": "price",
              "type": "uint256"
            },
            {
              "internalType": "address",
              "name": "creator",
              "type": "address"
            },
            {
              "internalType": "bool",
              "name": "isListed",
              "type": "bool"
            }
          ],
          "internalType": "struct NFTMarket.NFTItem",
          "name": "nft",
          "type": "tuple"
        }
      ],
      "stateMutability": "view",
      "type": "function"
    },
    {
      "inputs": [
        {
          "internalType": "address",
          "name": "owner",
          "type": "address"
        },
        {
          "internalType": "address",
          "name": "operator",
          "type": "address"
        }
      ],
      "name": "isApprovedForAll",
      "outputs": [
        {
          "internalType": "bool",
          "name": "",
          "type": "bool"
        }
      ],
      "stateMutability": "view",
      "type": "function"
    },
    {
      "inputs": [
        {
          "internalType": "string",
          "name": "tokenURI",
          "type": "string"
        },
        {
          "internalType": "uint256",
          "name": "price",
          "type": "uint256"
        }
      ],
      "name": "mintToken",
      "outputs": [
        {
          "internalType": "uint256",
          "name": "",
          "type": "uint256"
        }
      ],
      "stateMutability": "payable",
      "type": "function"
    },
    {
      "inputs": [],
      "name": "name",
      "outputs": [
        {
          "internalType": "string",
          "name": "",
          "type": "string"
        }
      ],
      "stateMutability": "view",
      "type": "function"
    },
    {
      "inputs": [],
      "name": "owner",
      "outputs": [
        {
          "internalType": "address",
          "name": "",
          "type": "address"
        }
      ],
      "stateMutability": "view",
      "type": "function"
    },
    {
      "inputs": [
        {
          "internalType": "uint256",
          "name": "tokenId",
          "type": "uint256"
        }
      ],
      "name": "ownerOf",
      "outputs": [
        {
          "internalType": "address",
          "name": "",
          "type": "address"
        }
      ],
      "stateMutability": "view",
      "type": "function"
    },
    {
      "inputs": [
        {
          "internalType": "uint256",
          "name": "tokenID",
          "type": "uint256"
        },
        {
          "internalType": "uint256",
          "name": "price",
          "type": "uint256"
        }
      ],
      "name": "placeNFTOnSale",
      "outputs": [],
      "stateMutability": "payable",
      "type": "function"
    },
    {
      "inputs": [],
      "name": "renounceOwnership",
      "outputs": [],
      "stateMutability": "nonpayable",
      "type": "function"
    },
    {
      "inputs": [
        {
          "internalType": "address",
          "name": "from",
          "type": "address"
        },
        {
          "internalType": "address",
          "name": "to",
          "type": "address"
        },
        {
          "internalType": "uint256",
          "name": "tokenId",
          "type": "uint256"
        }
      ],
      "name": "safeTransferFrom",
      "outputs": [],
      "stateMutability": "nonpayable",
      "type": "function"
    },
    {
      "inputs": [
        {
          "internalType": "address",
          "name": "from",
          "type": "address"
        },
        {
          "internalType": "address",
          "name": "to",
          "type": "address"
        },
        {
          "internalType": "uint256",
          "name": "tokenId",
          "type": "uint256"
        },
        {
          "internalType": "bytes",
          "name": "data",
          "type": "bytes"
        }
      ],
      "name": "safeTransferFrom",
      "outputs": [],
      "stateMutability": "nonpayable",
      "type": "function"
    },
    {
      "inputs": [
        {
          "internalType": "address",
          "name": "operator",
          "type": "address"
        },
        {
          "internalType": "bool",
          "name": "approved",
          "type": "bool"
        }
      ],
      "name": "setApprovalForAll",
      "outputs": [],
      "stateMutability": "nonpayable",
      "type": "function"
    },
    {
      "inputs": [
        {
          "internalType": "uint256",
          "name": "newPrice",
          "type": "uint256"
        }
      ],
      "name": "setListingPrice",
      "outputs": [],
      "stateMutability": "nonpayable",
      "type": "function"
    },
    {
      "inputs": [
        {
          "internalType": "bytes4",
          "name": "interfaceId",
          "type": "bytes4"
        }
      ],
      "name": "supportsInterface",
      "outputs": [
        {
          "internalType": "bool",
          "name": "",
          "type": "bool"
        }
      ],
      "stateMutability": "view",
      "type": "function"
    },
    {
      "inputs": [],
      "name": "symbol",
      "outputs": [
        {
          "internalType": "string",
          "name": "",
          "type": "string"
        }
      ],
      "stateMutability": "view",
      "type": "function"
    },
    {
      "inputs": [
        {
          "internalType": "uint256",
          "name": "tokenId",
          "type": "uint256"
        }
      ],
      "name": "tokenURI",
      "outputs": [
        {
          "internalType": "string",
          "name": "",
          "type": "string"
        }
      ],
      "stateMutability": "view",
      "type": "function"
    },
    {
      "inputs": [],
      "name": "totalSupply",
      "outputs": [
        {
          "internalType": "uint256",
          "name": "",
          "type": "uint256"
        }
      ],
      "stateMutability": "view",
      "type": "function"
    },
    {
      "inputs": [
        {
          "internalType": "address",
          "name": "from",
          "type": "address"
        },
        {
          "internalType": "address",
          "name": "to",
          "type": "address"
        },
        {
          "internalType": "uint256",
          "name": "tokenId",
          "type": "uint256"
        }
      ],
      "name": "transferFrom",
      "outputs": [],
      "stateMutability": "nonpayable",
      "type": "function"
    },
    {
      "inputs": [
        {
          "internalType": "address",
          "name": "newOwner",
          "type": "address"
        }
      ],
      "name": "transferOwnership",
      "outputs": [],
      "stateMutability": "nonpayable",
      "type": "function"
    }
  ],
  "bytecode": "0x60806040526658d15e17628000600a553480156200001c57600080fd5b506040518060400160405280600681526020017f43757469657300000000000000000000000000000000000000000000000000008152506040518060400160405280600481526020017f4b5955540000000000000000000000000000000000000000000000000000000081525081600090816200009a91906200041d565b508060019081620000ac91906200041d565b505050620000cf620000c3620000d560201b60201c565b620000dd60201b60201c565b62000504565b600033905090565b6000600760009054906101000a900473ffffffffffffffffffffffffffffffffffffffff16905081600760006101000a81548173ffffffffffffffffffffffffffffffffffffffff021916908373ffffffffffffffffffffffffffffffffffffffff1602179055508173ffffffffffffffffffffffffffffffffffffffff168173ffffffffffffffffffffffffffffffffffffffff167f8be0079c531659141344cd1fd0a4f28419497f9722a3daafe3b4186f6b6457e060405160405180910390a35050565b600081519050919050565b7f4e487b7100000000000000000000000000000000000000000000000000000000600052604160045260246000fd5b7f4e487b7100000000000000000000000000000000000000000000000000000000600052602260045260246000fd5b600060028204905060018216806200022557607f821691505b6020821081036200023b576200023a620001dd565b5b50919050565b60008190508160005260206000209050919050565b60006020601f8301049050919050565b600082821b905092915050565b600060088302620002a57fffffffffffffffffffffffffffffffffffffffffffffffffffffffffffffffff8262000266565b620002b1868362000266565b95508019841693508086168417925050509392505050565b6000819050919050565b6000819050919050565b6000620002fe620002f8620002f284620002c9565b620002d3565b620002c9565b9050919050565b6000819050919050565b6200031a83620002dd565b62000332620003298262000305565b84845462000273565b825550505050565b600090565b620003496200033a565b620003568184846200030f565b505050565b5b818110156200037e57620003726000826200033f565b6001810190506200035c565b5050565b601f821115620003cd57620003978162000241565b620003a28462000256565b81016020851015620003b2578190505b620003ca620003c18562000256565b8301826200035b565b50505b505050565b600082821c905092915050565b6000620003f260001984600802620003d2565b1980831691505092915050565b60006200040d8383620003df565b9150826002028217905092915050565b6200042882620001a3565b67ffffffffffffffff811115620004445762000443620001ae565b5b6200045082546200020c565b6200045d82828562000382565b600060209050601f83116001811462000495576000841562000480578287015190505b6200048c8582620003ff565b865550620004fc565b601f198416620004a58662000241565b60005b82811015620004cf57848901518255600182019150602085019450602081019050620004a8565b86831015620004ef5784890151620004eb601f891682620003df565b8355505b6001600288020188555050505b505050505050565b6144a380620005146000396000f3fe60806040526004361061019c5760003560e01c806370a08231116100ec578063b88d4fde1161008a578063e0391b0911610064578063e0391b09146105b1578063e985e9c5146105dc578063f0be4fac14610619578063f2fde38b146106445761019c565b8063b88d4fde1461051b578063c046372c14610544578063c87b56dd146105745761019c565b80637c726b69116100c65780637c726b69146104735780638da5cb5b1461049c57806395d89b41146104c7578063a22cb465146104f25761019c565b806370a08231146103f4578063715018a61461043157806373956761146104485761019c565b806323b872dd1161015957806351ed82881161013357806351ed828814610333578063629cb2e41461034f5780636352211e1461037a5780636a3ceff9146103b75761019c565b806323b872dd146102b657806333353f48146102df57806342842e0e1461030a5761019c565b806301ffc9a7146101a157806306fdde03146101de578063081812fc14610209578063095ea7b31461024657806318160ddd1461026f578063232e5aa61461029a575b600080fd5b3480156101ad57600080fd5b506101c860048036038101906101c39190612a11565b61066d565b6040516101d59190612a59565b60405180910390f35b3480156101ea57600080fd5b506101f361074f565b6040516102009190612b04565b60405180910390f35b34801561021557600080fd5b50610230600480360381019061022b9190612b5c565b6107e1565b60405161023d9190612bca565b60405180910390f35b34801561025257600080fd5b5061026d60048036038101906102689190612c11565b610827565b005b34801561027b57600080fd5b5061028461093e565b6040516102919190612c60565b60405180910390f35b6102b460048036038101906102af9190612c7b565b61094b565b005b3480156102c257600080fd5b506102dd60048036038101906102d89190612cbb565b610ab2565b005b3480156102eb57600080fd5b506102f4610b12565b6040516103019190612c60565b60405180910390f35b34801561031657600080fd5b50610331600480360381019061032c9190612cbb565b610b23565b005b61034d60048036038101906103489190612b5c565b610b43565b005b34801561035b57600080fd5b50610364610d09565b6040516103719190612e3f565b60405180910390f35b34801561038657600080fd5b506103a1600480360381019061039c9190612b5c565b610f71565b6040516103ae9190612bca565b60405180910390f35b3480156103c357600080fd5b506103de60048036038101906103d99190612b5c565b611022565b6040516103eb9190612eb6565b60405180910390f35b34801561040057600080fd5b5061041b60048036038101906104169190612ed1565b6110e3565b6040516104289190612c60565b60405180910390f35b34801561043d57600080fd5b5061044661119a565b005b34801561045457600080fd5b5061045d6111ae565b60405161046a9190612c60565b60405180910390f35b34801561047f57600080fd5b5061049a60048036038101906104959190612b5c565b6111b4565b005b3480156104a857600080fd5b506104b1611209565b6040516104be9190612bca565b60405180910390f35b3480156104d357600080fd5b506104dc611233565b6040516104e99190612b04565b60405180910390f35b3480156104fe57600080fd5b5061051960048036038101906105149190612f2a565b6112c5565b005b34801561052757600080fd5b50610542600480360381019061053d919061309f565b6112db565b005b61055e60048036038101906105599190613182565b61133d565b60405161056b9190612c60565b60405180910390f35b34801561058057600080fd5b5061059b60048036038101906105969190612b5c565b611618565b6040516105a89190612b04565b60405180910390f35b3480156105bd57600080fd5b506105c661172a565b6040516105d39190612e3f565b60405180910390f35b3480156105e857600080fd5b5061060360048036038101906105fe91906131e2565b61180e565b6040516106109190612a59565b60405180910390f35b34801561062557600080fd5b5061062e6118a2565b60405161063b9190612e3f565b60405180910390f35b34801561065057600080fd5b5061066b60048036038101906106669190612ed1565b611a27565b005b60007f80ac58cd000000000000000000000000000000000000000000000000000000007bffffffffffffffffffffffffffffffffffffffffffffffffffffffff1916827bffffffffffffffffffffffffffffffffffffffffffffffffffffffff1916148061073857507f5b5e139f000000000000000000000000000000000000000000000000000000007bffffffffffffffffffffffffffffffffffffffffffffffffffffffff1916827bffffffffffffffffffffffffffffffffffffffffffffffffffffffff1916145b80610748575061074782611aaa565b5b9050919050565b60606000805461075e90613251565b80601f016020809104026020016040519081016040528092919081815260200182805461078a90613251565b80156107d75780601f106107ac576101008083540402835291602001916107d7565b820191906000526020600020905b8154815290600101906020018083116107ba57829003601f168201915b5050505050905090565b60006107ec82611b14565b6004600083815260200190815260200160002060009054906101000a900473ffffffffffffffffffffffffffffffffffffffff169050919050565b600061083282610f71565b90508073ffffffffffffffffffffffffffffffffffffffff168373ffffffffffffffffffffffffffffffffffffffff16036108a2576040517f08c379a0000000000000000000000000000000000000000000000000000000008152600401610899906132f4565b60405180910390fd5b8073ffffffffffffffffffffffffffffffffffffffff166108c1611b5f565b73ffffffffffffffffffffffffffffffffffffffff1614806108f057506108ef816108ea611b5f565b61180e565b5b61092f576040517f08c379a000000000000000000000000000000000000000000000000000000000815260040161092690613386565b60405180910390fd5b6109398383611b67565b505050565b6000600c80549050905090565b3373ffffffffffffffffffffffffffffffffffffffff1661096b83610f71565b73ffffffffffffffffffffffffffffffffffffffff16146109c1576040517f08c379a00000000000000000000000000000000000000000000000000000000081526004016109b8906133f2565b60405180910390fd5b600a543414610a05576040517f08c379a00000000000000000000000000000000000000000000000000000000081526004016109fc9061345e565b60405180910390fd5b6000600c8381548110610a1b57610a1a61347e565b5b906000526020600020906003020190508060020160149054906101000a900460ff1615610a7d576040517f08c379a0000000000000000000000000000000000000000000000000000000008152600401610a74906134f9565b60405180910390fd5b60018160020160146101000a81548160ff021916908315150217905550818160010181905550610aad6008611c20565b505050565b610ac3610abd611b5f565b82611c36565b610b02576040517f08c379a0000000000000000000000000000000000000000000000000000000008152600401610af99061358b565b60405180910390fd5b610b0d838383611ccb565b505050565b6000610b1e6008611f31565b905090565b610b3e838383604051806020016040528060008152506112db565b505050565b6000600c8281548110610b5957610b5861347e565b5b906000526020600020906003020190506000816001015490506000610b818360000154610f71565b905060008360020160149054906101000a900460ff1690508173ffffffffffffffffffffffffffffffffffffffff163373ffffffffffffffffffffffffffffffffffffffff1603610c07576040517f08c379a0000000000000000000000000000000000000000000000000000000008152600401610bfe906135f7565b60405180910390fd5b80610c47576040517f08c379a0000000000000000000000000000000000000000000000000000000008152600401610c3e90613663565b60405180910390fd5b823414610c89576040517f08c379a0000000000000000000000000000000000000000000000000000000008152600401610c80906136cf565b60405180910390fd5b60008460020160146101000a81548160ff021916908315150217905550610cb06008611f3f565b610cbb823387611ccb565b8173ffffffffffffffffffffffffffffffffffffffff166108fc349081150290604051600060405180830381858888f19350505050158015610d01573d6000803e3d6000fd5b505050505050565b60606000610d16336110e3565b905060008167ffffffffffffffff811115610d3457610d33612f74565b5b604051908082528060200260200182016040528015610d6d57816020015b610d5a612965565b815260200190600190039081610d525790505b5090506000805b600c80549050811015610f67576000600c8281548110610d9757610d9661347e565b5b906000526020600020906003020160405180608001604052908160008201548152602001600182015481526020016002820160009054906101000a900473ffffffffffffffffffffffffffffffffffffffff1673ffffffffffffffffffffffffffffffffffffffff1673ffffffffffffffffffffffffffffffffffffffff1681526020016002820160149054906101000a900460ff16151515158152505090503373ffffffffffffffffffffffffffffffffffffffff16610e5b8260000151610f71565b73ffffffffffffffffffffffffffffffffffffffff1603610f5357600c8281548110610e8a57610e8961347e565b5b906000526020600020906003020160405180608001604052908160008201548152602001600182015481526020016002820160009054906101000a900473ffffffffffffffffffffffffffffffffffffffff1673ffffffffffffffffffffffffffffffffffffffff1673ffffffffffffffffffffffffffffffffffffffff1681526020016002820160149054906101000a900460ff161515151581525050848480610f349061371e565b955081518110610f4757610f4661347e565b5b60200260200101819052505b508080610f5f9061371e565b915050610d74565b5081935050505090565b6000806002600084815260200190815260200160002060009054906101000a900473ffffffffffffffffffffffffffffffffffffffff169050600073ffffffffffffffffffffffffffffffffffffffff168173ffffffffffffffffffffffffffffffffffffffff1603611019576040517f08c379a0000000000000000000000000000000000000000000000000000000008152600401611010906137b2565b60405180910390fd5b80915050919050565b61102a612965565b600c828154811061103e5761103d61347e565b5b906000526020600020906003020160405180608001604052908160008201548152602001600182015481526020016002820160009054906101000a900473ffffffffffffffffffffffffffffffffffffffff1673ffffffffffffffffffffffffffffffffffffffff1673ffffffffffffffffffffffffffffffffffffffff1681526020016002820160149054906101000a900460ff1615151515815250509050919050565b60008073ffffffffffffffffffffffffffffffffffffffff168273ffffffffffffffffffffffffffffffffffffffff1603611153576040517f08c379a000000000000000000000000000000000000000000000000000000000815260040161114a90613844565b60405180910390fd5b600360008373ffffffffffffffffffffffffffffffffffffffff1673ffffffffffffffffffffffffffffffffffffffff168152602001908152602001600020549050919050565b6111a2611f9b565b6111ac6000612019565b565b600a5481565b6111bc611f9b565b600081116111ff576040517f08c379a00000000000000000000000000000000000000000000000000000000081526004016111f6906138b0565b60405180910390fd5b80600a8190555050565b6000600760009054906101000a900473ffffffffffffffffffffffffffffffffffffffff16905090565b60606001805461124290613251565b80601f016020809104026020016040519081016040528092919081815260200182805461126e90613251565b80156112bb5780601f10611290576101008083540402835291602001916112bb565b820191906000526020600020905b81548152906001019060200180831161129e57829003601f168201915b5050505050905090565b6112d76112d0611b5f565b83836120df565b5050565b6112ec6112e6611b5f565b83611c36565b61132b576040517f08c379a00000000000000000000000000000000000000000000000000000000081526004016113229061358b565b60405180910390fd5b6113378484848461224b565b50505050565b6000838383600b8383604051611354929190613900565b908152602001604051809103902060009054906101000a900460ff16156113b0576040517f08c379a00000000000000000000000000000000000000000000000000000000081526004016113a790613965565b60405180910390fd5b600081116113f3576040517f08c379a00000000000000000000000000000000000000000000000000000000081526004016113ea906139d1565b60405180910390fd5b600a543414611437576040517f08c379a000000000000000000000000000000000000000000000000000000000815260040161142e90613a63565b60405180910390fd5b60006114436009611f31565b905061144f33826122a7565b61149d8189898080601f016020809104026020016040519081016040528093929190818152602001838380828437600081840152601f19601f820116905080830192505050505050506122c5565b600c60405180608001604052808381526020018881526020013373ffffffffffffffffffffffffffffffffffffffff168152602001600015158152509080600181540180825580915050600190039060005260206000209060030201600090919091909150600082015181600001556020820151816001015560408201518160020160006101000a81548173ffffffffffffffffffffffffffffffffffffffff021916908373ffffffffffffffffffffffffffffffffffffffff16021790555060608201518160020160146101000a81548160ff02191690831515021790555050507f49382132e597f43adffbff58a0c41168d29cb5715c3303792add56c2d2330d0f81873360016040516115b59493929190613a83565b60405180910390a16115c76009611c20565b6115d16008611c20565b6001600b89896040516115e5929190613900565b908152602001604051809103902060006101000a81548160ff021916908315150217905550809450505050509392505050565b606061162382611b14565b600060066000848152602001908152602001600020805461164390613251565b80601f016020809104026020016040519081016040528092919081815260200182805461166f90613251565b80156116bc5780601f10611691576101008083540402835291602001916116bc565b820191906000526020600020905b81548152906001019060200180831161169f57829003601f168201915b5050505050905060006116cd612332565b905060008151036116e2578192505050611725565b6000825111156117175780826040516020016116ff929190613af9565b60405160208183030381529060405292505050611725565b61172084612349565b925050505b919050565b6060600c805480602002602001604051908101604052809291908181526020016000905b82821015611805578382906000526020600020906003020160405180608001604052908160008201548152602001600182015481526020016002820160009054906101000a900473ffffffffffffffffffffffffffffffffffffffff1673ffffffffffffffffffffffffffffffffffffffff1673ffffffffffffffffffffffffffffffffffffffff1681526020016002820160149054906101000a900460ff1615151515815250508152602001906001019061174e565b50505050905090565b6000600560008473ffffffffffffffffffffffffffffffffffffffff1673ffffffffffffffffffffffffffffffffffffffff16815260200190815260200160002060008373ffffffffffffffffffffffffffffffffffffffff1673ffffffffffffffffffffffffffffffffffffffff16815260200190815260200160002060009054906101000a900460ff16905092915050565b606060006118ae61093e565b905060006118bc6008611f31565b67ffffffffffffffff8111156118d5576118d4612f74565b5b60405190808252806020026020018201604052801561190e57816020015b6118fb612965565b8152602001906001900390816118f35790505b5090506000805b83811015611a1d576000600c82815481106119335761193261347e565b5b906000526020600020906003020160405180608001604052908160008201548152602001600182015481526020016002820160009054906101000a900473ffffffffffffffffffffffffffffffffffffffff1673ffffffffffffffffffffffffffffffffffffffff1673ffffffffffffffffffffffffffffffffffffffff1681526020016002820160149054906101000a900460ff1615151515815250509050806060015115611a0957808484806119ea9061371e565b9550815181106119fd576119fc61347e565b5b60200260200101819052505b508080611a159061371e565b915050611915565b5081935050505090565b611a2f611f9b565b600073ffffffffffffffffffffffffffffffffffffffff168173ffffffffffffffffffffffffffffffffffffffff1603611a9e576040517f08c379a0000000000000000000000000000000000000000000000000000000008152600401611a9590613b8f565b60405180910390fd5b611aa781612019565b50565b60007f01ffc9a7000000000000000000000000000000000000000000000000000000007bffffffffffffffffffffffffffffffffffffffffffffffffffffffff1916827bffffffffffffffffffffffffffffffffffffffffffffffffffffffff1916149050919050565b611b1d816123b1565b611b5c576040517f08c379a0000000000000000000000000000000000000000000000000000000008152600401611b53906137b2565b60405180910390fd5b50565b600033905090565b816004600083815260200190815260200160002060006101000a81548173ffffffffffffffffffffffffffffffffffffffff021916908373ffffffffffffffffffffffffffffffffffffffff160217905550808273ffffffffffffffffffffffffffffffffffffffff16611bda83610f71565b73ffffffffffffffffffffffffffffffffffffffff167f8c5be1e5ebec7d5bd14f71427d1e84f3dd0314c0f7b2291e5b200ac8c7c3b92560405160405180910390a45050565b6001816000016000828254019250508190555050565b600080611c4283610f71565b90508073ffffffffffffffffffffffffffffffffffffffff168473ffffffffffffffffffffffffffffffffffffffff161480611c845750611c83818561180e565b5b80611cc257508373ffffffffffffffffffffffffffffffffffffffff16611caa846107e1565b73ffffffffffffffffffffffffffffffffffffffff16145b91505092915050565b8273ffffffffffffffffffffffffffffffffffffffff16611ceb82610f71565b73ffffffffffffffffffffffffffffffffffffffff1614611d41576040517f08c379a0000000000000000000000000000000000000000000000000000000008152600401611d3890613c21565b60405180910390fd5b600073ffffffffffffffffffffffffffffffffffffffff168273ffffffffffffffffffffffffffffffffffffffff1603611db0576040517f08c379a0000000000000000000000000000000000000000000000000000000008152600401611da790613cb3565b60405180910390fd5b611dbb83838361241d565b611dc6600082611b67565b6001600360008573ffffffffffffffffffffffffffffffffffffffff1673ffffffffffffffffffffffffffffffffffffffff1681526020019081526020016000206000828254611e169190613cd3565b925050819055506001600360008473ffffffffffffffffffffffffffffffffffffffff1673ffffffffffffffffffffffffffffffffffffffff1681526020019081526020016000206000828254611e6d9190613d07565b92505081905550816002600083815260200190815260200160002060006101000a81548173ffffffffffffffffffffffffffffffffffffffff021916908373ffffffffffffffffffffffffffffffffffffffff160217905550808273ffffffffffffffffffffffffffffffffffffffff168473ffffffffffffffffffffffffffffffffffffffff167fddf252ad1be2c89b69c2b068fc378daa952ba7f163c4a11628f55a4df523b3ef60405160405180910390a4611f2c838383612422565b505050565b600081600001549050919050565b60008160000154905060008111611f8b576040517f08c379a0000000000000000000000000000000000000000000000000000000008152600401611f8290613d87565b60405180910390fd5b6001810382600001819055505050565b611fa3611b5f565b73ffffffffffffffffffffffffffffffffffffffff16611fc1611209565b73ffffffffffffffffffffffffffffffffffffffff1614612017576040517f08c379a000000000000000000000000000000000000000000000000000000000815260040161200e90613df3565b60405180910390fd5b565b6000600760009054906101000a900473ffffffffffffffffffffffffffffffffffffffff16905081600760006101000a81548173ffffffffffffffffffffffffffffffffffffffff021916908373ffffffffffffffffffffffffffffffffffffffff1602179055508173ffffffffffffffffffffffffffffffffffffffff168173ffffffffffffffffffffffffffffffffffffffff167f8be0079c531659141344cd1fd0a4f28419497f9722a3daafe3b4186f6b6457e060405160405180910390a35050565b8173ffffffffffffffffffffffffffffffffffffffff168373ffffffffffffffffffffffffffffffffffffffff160361214d576040517f08c379a000000000000000000000000000000000000000000000000000000000815260040161214490613e5f565b60405180910390fd5b80600560008573ffffffffffffffffffffffffffffffffffffffff1673ffffffffffffffffffffffffffffffffffffffff16815260200190815260200160002060008473ffffffffffffffffffffffffffffffffffffffff1673ffffffffffffffffffffffffffffffffffffffff16815260200190815260200160002060006101000a81548160ff0219169083151502179055508173ffffffffffffffffffffffffffffffffffffffff168373ffffffffffffffffffffffffffffffffffffffff167f17307eab39ab6107e8899845ad3d59bd9653f200f220920489ca2b5937696c318360405161223e9190612a59565b60405180910390a3505050565b612256848484611ccb565b61226284848484612427565b6122a1576040517f08c379a000000000000000000000000000000000000000000000000000000000815260040161229890613ef1565b60405180910390fd5b50505050565b6122c18282604051806020016040528060008152506125ae565b5050565b6122ce826123b1565b61230d576040517f08c379a000000000000000000000000000000000000000000000000000000000815260040161230490613f83565b60405180910390fd5b8060066000848152602001908152602001600020908161232d919061414f565b505050565b606060405180602001604052806000815250905090565b606061235482611b14565b600061235e612332565b9050600081511161237e57604051806020016040528060008152506123a9565b8061238884612609565b604051602001612399929190613af9565b6040516020818303038152906040525b915050919050565b60008073ffffffffffffffffffffffffffffffffffffffff166002600084815260200190815260200160002060009054906101000a900473ffffffffffffffffffffffffffffffffffffffff1673ffffffffffffffffffffffffffffffffffffffff1614159050919050565b505050565b505050565b60006124488473ffffffffffffffffffffffffffffffffffffffff16612769565b156125a1578373ffffffffffffffffffffffffffffffffffffffff1663150b7a02612471611b5f565b8786866040518563ffffffff1660e01b81526004016124939493929190614276565b6020604051808303816000875af19250505080156124cf57506040513d601f19601f820116820180604052508101906124cc91906142d7565b60015b612551573d80600081146124ff576040519150601f19603f3d011682016040523d82523d6000602084013e612504565b606091505b506000815103612549576040517f08c379a000000000000000000000000000000000000000000000000000000000815260040161254090613ef1565b60405180910390fd5b805181602001fd5b63150b7a0260e01b7bffffffffffffffffffffffffffffffffffffffffffffffffffffffff1916817bffffffffffffffffffffffffffffffffffffffffffffffffffffffff1916149150506125a6565b600190505b949350505050565b6125b8838361278c565b6125c56000848484612427565b612604576040517f08c379a00000000000000000000000000000000000000000000000000000000081526004016125fb90613ef1565b60405180910390fd5b505050565b606060008203612650576040518060400160405280600181526020017f30000000000000000000000000000000000000000000000000000000000000008152509050612764565b600082905060005b6000821461268257808061266b9061371e565b915050600a8261267b9190614333565b9150612658565b60008167ffffffffffffffff81111561269e5761269d612f74565b5b6040519080825280601f01601f1916602001820160405280156126d05781602001600182028036833780820191505090505b5090505b6000851461275d576001826126e99190613cd3565b9150600a856126f89190614364565b60306127049190613d07565b60f81b81838151811061271a5761271961347e565b5b60200101907effffffffffffffffffffffffffffffffffffffffffffffffffffffffffffff1916908160001a905350600a856127569190614333565b94506126d4565b8093505050505b919050565b6000808273ffffffffffffffffffffffffffffffffffffffff163b119050919050565b600073ffffffffffffffffffffffffffffffffffffffff168273ffffffffffffffffffffffffffffffffffffffff16036127fb576040517f08c379a00000000000000000000000000000000000000000000000000000000081526004016127f2906143e1565b60405180910390fd5b612804816123b1565b15612844576040517f08c379a000000000000000000000000000000000000000000000000000000000815260040161283b9061444d565b60405180910390fd5b6128506000838361241d565b6001600360008473ffffffffffffffffffffffffffffffffffffffff1673ffffffffffffffffffffffffffffffffffffffff16815260200190815260200160002060008282546128a09190613d07565b92505081905550816002600083815260200190815260200160002060006101000a81548173ffffffffffffffffffffffffffffffffffffffff021916908373ffffffffffffffffffffffffffffffffffffffff160217905550808273ffffffffffffffffffffffffffffffffffffffff16600073ffffffffffffffffffffffffffffffffffffffff167fddf252ad1be2c89b69c2b068fc378daa952ba7f163c4a11628f55a4df523b3ef60405160405180910390a461296160008383612422565b5050565b60405180608001604052806000815260200160008152602001600073ffffffffffffffffffffffffffffffffffffffff1681526020016000151581525090565b6000604051905090565b600080fd5b600080fd5b60007fffffffff0000000000000000000000000000000000000000000000000000000082169050919050565b6129ee816129b9565b81146129f957600080fd5b50565b600081359050612a0b816129e5565b92915050565b600060208284031215612a2757612a266129af565b5b6000612a35848285016129fc565b91505092915050565b60008115159050919050565b612a5381612a3e565b82525050565b6000602082019050612a6e6000830184612a4a565b92915050565b600081519050919050565b600082825260208201905092915050565b60005b83811015612aae578082015181840152602081019050612a93565b60008484015250505050565b6000601f19601f8301169050919050565b6000612ad682612a74565b612ae08185612a7f565b9350612af0818560208601612a90565b612af981612aba565b840191505092915050565b60006020820190508181036000830152612b1e8184612acb565b905092915050565b6000819050919050565b612b3981612b26565b8114612b4457600080fd5b50565b600081359050612b5681612b30565b92915050565b600060208284031215612b7257612b716129af565b5b6000612b8084828501612b47565b91505092915050565b600073ffffffffffffffffffffffffffffffffffffffff82169050919050565b6000612bb482612b89565b9050919050565b612bc481612ba9565b82525050565b6000602082019050612bdf6000830184612bbb565b92915050565b612bee81612ba9565b8114612bf957600080fd5b50565b600081359050612c0b81612be5565b92915050565b60008060408385031215612c2857612c276129af565b5b6000612c3685828601612bfc565b9250506020612c4785828601612b47565b9150509250929050565b612c5a81612b26565b82525050565b6000602082019050612c756000830184612c51565b92915050565b60008060408385031215612c9257612c916129af565b5b6000612ca085828601612b47565b9250506020612cb185828601612b47565b9150509250929050565b600080600060608486031215612cd457612cd36129af565b5b6000612ce286828701612bfc565b9350506020612cf386828701612bfc565b9250506040612d0486828701612b47565b9150509250925092565b600081519050919050565b600082825260208201905092915050565b6000819050602082019050919050565b612d4381612b26565b82525050565b612d5281612ba9565b82525050565b612d6181612a3e565b82525050565b608082016000820151612d7d6000850182612d3a565b506020820151612d906020850182612d3a565b506040820151612da36040850182612d49565b506060820151612db66060850182612d58565b50505050565b6000612dc88383612d67565b60808301905092915050565b6000602082019050919050565b6000612dec82612d0e565b612df68185612d19565b9350612e0183612d2a565b8060005b83811015612e32578151612e198882612dbc565b9750612e2483612dd4565b925050600181019050612e05565b5085935050505092915050565b60006020820190508181036000830152612e598184612de1565b905092915050565b608082016000820151612e776000850182612d3a565b506020820151612e8a6020850182612d3a565b506040820151612e9d6040850182612d49565b506060820151612eb06060850182612d58565b50505050565b6000608082019050612ecb6000830184612e61565b92915050565b600060208284031215612ee757612ee66129af565b5b6000612ef584828501612bfc565b91505092915050565b612f0781612a3e565b8114612f1257600080fd5b50565b600081359050612f2481612efe565b92915050565b60008060408385031215612f4157612f406129af565b5b6000612f4f85828601612bfc565b9250506020612f6085828601612f15565b9150509250929050565b600080fd5b600080fd5b7f4e487b7100000000000000000000000000000000000000000000000000000000600052604160045260246000fd5b612fac82612aba565b810181811067ffffffffffffffff82111715612fcb57612fca612f74565b5b80604052505050565b6000612fde6129a5565b9050612fea8282612fa3565b919050565b600067ffffffffffffffff82111561300a57613009612f74565b5b61301382612aba565b9050602081019050919050565b82818337600083830152505050565b600061304261303d84612fef565b612fd4565b90508281526020810184848401111561305e5761305d612f6f565b5b613069848285613020565b509392505050565b600082601f83011261308657613085612f6a565b5b813561309684826020860161302f565b91505092915050565b600080600080608085870312156130b9576130b86129af565b5b60006130c787828801612bfc565b94505060206130d887828801612bfc565b93505060406130e987828801612b47565b925050606085013567ffffffffffffffff81111561310a576131096129b4565b5b61311687828801613071565b91505092959194509250565b600080fd5b600080fd5b60008083601f84011261314257613141612f6a565b5b8235905067ffffffffffffffff81111561315f5761315e613122565b5b60208301915083600182028301111561317b5761317a613127565b5b9250929050565b60008060006040848603121561319b5761319a6129af565b5b600084013567ffffffffffffffff8111156131b9576131b86129b4565b5b6131c58682870161312c565b935093505060206131d886828701612b47565b9150509250925092565b600080604083850312156131f9576131f86129af565b5b600061320785828601612bfc565b925050602061321885828601612bfc565b9150509250929050565b7f4e487b7100000000000000000000000000000000000000000000000000000000600052602260045260246000fd5b6000600282049050600182168061326957607f821691505b60208210810361327c5761327b613222565b5b50919050565b7f4552433732313a20617070726f76616c20746f2063757272656e74206f776e6560008201527f7200000000000000000000000000000000000000000000000000000000000000602082015250565b60006132de602183612a7f565b91506132e982613282565b604082019050919050565b6000602082019050818103600083015261330d816132d1565b9050919050565b7f4552433732313a20617070726f76652063616c6c6572206973206e6f7420746f60008201527f6b656e206f776e6572206e6f7220617070726f76656420666f7220616c6c0000602082015250565b6000613370603e83612a7f565b915061337b82613314565b604082019050919050565b6000602082019050818103600083015261339f81613363565b9050919050565b7f63616c6c6572206973206e6f74206f776e657200000000000000000000000000600082015250565b60006133dc601383612a7f565b91506133e7826133a6565b602082019050919050565b6000602082019050818103600083015261340b816133cf565b9050919050565b7f6d7573742073656e64206c697374696e67207072696365000000000000000000600082015250565b6000613448601783612a7f565b915061345382613412565b602082019050919050565b600060208201905081810360008301526134778161343b565b9050919050565b7f4e487b7100000000000000000000000000000000000000000000000000000000600052603260045260246000fd5b7f616c7265616479206c697374656420666f722073616c65000000000000000000600082015250565b60006134e3601783612a7f565b91506134ee826134ad565b602082019050919050565b60006020820190508181036000830152613512816134d6565b9050919050565b7f4552433732313a2063616c6c6572206973206e6f7420746f6b656e206f776e6560008201527f72206e6f7220617070726f766564000000000000000000000000000000000000602082015250565b6000613575602e83612a7f565b915061358082613519565b604082019050919050565b600060208201905081810360008301526135a481613568565b9050919050565b7f596f7520616c7265616479206f776e2074686973204e46540000000000000000600082015250565b60006135e1601883612a7f565b91506135ec826135ab565b602082019050919050565b60006020820190508181036000830152613610816135d4565b9050919050565b7f63616e277420707572636861736520756e6c6973746564204e46540000000000600082015250565b600061364d601b83612a7f565b915061365882613617565b602082019050919050565b6000602082019050818103600083015261367c81613640565b9050919050565b7f496e73756666696369656e7420707572636861736520616d6f756e7400000000600082015250565b60006136b9601c83612a7f565b91506136c482613683565b602082019050919050565b600060208201905081810360008301526136e8816136ac565b9050919050565b7f4e487b7100000000000000000000000000000000000000000000000000000000600052601160045260246000fd5b600061372982612b26565b91507fffffffffffffffffffffffffffffffffffffffffffffffffffffffffffffffff820361375b5761375a6136ef565b5b600182019050919050565b7f4552433732313a20696e76616c696420746f6b656e2049440000000000000000600082015250565b600061379c601883612a7f565b91506137a782613766565b602082019050919050565b600060208201905081810360008301526137cb8161378f565b9050919050565b7f4552433732313a2061646472657373207a65726f206973206e6f74206120766160008201527f6c6964206f776e65720000000000000000000000000000000000000000000000602082015250565b600061382e602983612a7f565b9150613839826137d2565b604082019050919050565b6000602082019050818103600083015261385d81613821565b9050919050565b7f5072696365206d757374206265206174206c6561737420312077656900000000600082015250565b600061389a601c83612a7f565b91506138a582613864565b602082019050919050565b600060208201905081810360008301526138c98161388d565b9050919050565b600081905092915050565b60006138e783856138d0565b93506138f4838584613020565b82840190509392505050565b600061390d8284866138db565b91508190509392505050565b7f55524920616c7265616479206578697374730000000000000000000000000000600082015250565b600061394f601283612a7f565b915061395a82613919565b602082019050919050565b6000602082019050818103600083015261397e81613942565b9050919050565b7f4e46542070726963652063616e6e6f7420626520300000000000000000000000600082015250565b60006139bb601583612a7f565b91506139c682613985565b602082019050919050565b600060208201905081810360008301526139ea816139ae565b9050919050565b7f616d6f756e742073656e74206d75737420626520657175616c20746f206c697360008201527f74696e6720707269636500000000000000000000000000000000000000000000602082015250565b6000613a4d602a83612a7f565b9150613a58826139f1565b604082019050919050565b60006020820190508181036000830152613a7c81613a40565b9050919050565b6000608082019050613a986000830187612c51565b613aa56020830186612c51565b613ab26040830185612bbb565b613abf6060830184612a4a565b95945050505050565b6000613ad382612a74565b613add81856138d0565b9350613aed818560208601612a90565b80840191505092915050565b6000613b058285613ac8565b9150613b118284613ac8565b91508190509392505050565b7f4f776e61626c653a206e6577206f776e657220697320746865207a65726f206160008201527f6464726573730000000000000000000000000000000000000000000000000000602082015250565b6000613b79602683612a7f565b9150613b8482613b1d565b604082019050919050565b60006020820190508181036000830152613ba881613b6c565b9050919050565b7f4552433732313a207472616e736665722066726f6d20696e636f72726563742060008201527f6f776e6572000000000000000000000000000000000000000000000000000000602082015250565b6000613c0b602583612a7f565b9150613c1682613baf565b604082019050919050565b60006020820190508181036000830152613c3a81613bfe565b9050919050565b7f4552433732313a207472616e7366657220746f20746865207a65726f2061646460008201527f7265737300000000000000000000000000000000000000000000000000000000602082015250565b6000613c9d602483612a7f565b9150613ca882613c41565b604082019050919050565b60006020820190508181036000830152613ccc81613c90565b9050919050565b6000613cde82612b26565b9150613ce983612b26565b9250828203905081811115613d0157613d006136ef565b5b92915050565b6000613d1282612b26565b9150613d1d83612b26565b9250828201905080821115613d3557613d346136ef565b5b92915050565b7f436f756e7465723a2064656372656d656e74206f766572666c6f770000000000600082015250565b6000613d71601b83612a7f565b9150613d7c82613d3b565b602082019050919050565b60006020820190508181036000830152613da081613d64565b9050919050565b7f4f776e61626c653a2063616c6c6572206973206e6f7420746865206f776e6572600082015250565b6000613ddd602083612a7f565b9150613de882613da7565b602082019050919050565b60006020820190508181036000830152613e0c81613dd0565b9050919050565b7f4552433732313a20617070726f766520746f2063616c6c657200000000000000600082015250565b6000613e49601983612a7f565b9150613e5482613e13565b602082019050919050565b60006020820190508181036000830152613e7881613e3c565b9050919050565b7f4552433732313a207472616e7366657220746f206e6f6e20455243373231526560008201527f63656976657220696d706c656d656e7465720000000000000000000000000000602082015250565b6000613edb603283612a7f565b9150613ee682613e7f565b604082019050919050565b60006020820190508181036000830152613f0a81613ece565b9050919050565b7f45524337323155524953746f726167653a2055524920736574206f66206e6f6e60008201527f6578697374656e7420746f6b656e000000000000000000000000000000000000602082015250565b6000613f6d602e83612a7f565b9150613f7882613f11565b604082019050919050565b60006020820190508181036000830152613f9c81613f60565b9050919050565b60008190508160005260206000209050919050565b60006020601f8301049050919050565b600082821b905092915050565b6000600883026140057fffffffffffffffffffffffffffffffffffffffffffffffffffffffffffffffff82613fc8565b61400f8683613fc8565b95508019841693508086168417925050509392505050565b6000819050919050565b600061404c61404761404284612b26565b614027565b612b26565b9050919050565b6000819050919050565b61406683614031565b61407a61407282614053565b848454613fd5565b825550505050565b600090565b61408f614082565b61409a81848461405d565b505050565b5b818110156140be576140b3600082614087565b6001810190506140a0565b5050565b601f821115614103576140d481613fa3565b6140dd84613fb8565b810160208510156140ec578190505b6141006140f885613fb8565b83018261409f565b50505b505050565b600082821c905092915050565b600061412660001984600802614108565b1980831691505092915050565b600061413f8383614115565b9150826002028217905092915050565b61415882612a74565b67ffffffffffffffff81111561417157614170612f74565b5b61417b8254613251565b6141868282856140c2565b600060209050601f8311600181146141b957600084156141a7578287015190505b6141b18582614133565b865550614219565b601f1984166141c786613fa3565b60005b828110156141ef578489015182556001820191506020850194506020810190506141ca565b8683101561420c5784890151614208601f891682614115565b8355505b6001600288020188555050505b505050505050565b600081519050919050565b600082825260208201905092915050565b600061424882614221565b614252818561422c565b9350614262818560208601612a90565b61426b81612aba565b840191505092915050565b600060808201905061428b6000830187612bbb565b6142986020830186612bbb565b6142a56040830185612c51565b81810360608301526142b7818461423d565b905095945050505050565b6000815190506142d1816129e5565b92915050565b6000602082840312156142ed576142ec6129af565b5b60006142fb848285016142c2565b91505092915050565b7f4e487b7100000000000000000000000000000000000000000000000000000000600052601260045260246000fd5b600061433e82612b26565b915061434983612b26565b92508261435957614358614304565b5b828204905092915050565b600061436f82612b26565b915061437a83612b26565b92508261438a57614389614304565b5b828206905092915050565b7f4552433732313a206d696e7420746f20746865207a65726f2061646472657373600082015250565b60006143cb602083612a7f565b91506143d682614395565b602082019050919050565b600060208201905081810360008301526143fa816143be565b9050919050565b7f4552433732313a20746f6b656e20616c7265616479206d696e74656400000000600082015250565b6000614437601c83612a7f565b915061444282614401565b602082019050919050565b600060208201905081810360008301526144668161442a565b905091905056fea2646970667358221220d1528a98c4806ff1b2809653f91afc910b16ca8a21e7c7bf5920581e44686c6664736f6c63430008110033",
  "linkReferences": {},
  "deployedLinkReferences": {}
}